{
  "contractName": "Course",
  "abi": [
    {
      "inputs": [],
      "payable": false,
      "stateMutability": "nonpayable",
      "type": "constructor"
    },
    {
      "constant": true,
      "inputs": [],
      "name": "_name",
      "outputs": [
        {
          "internalType": "string",
          "name": "",
          "type": "string"
        }
      ],
      "payable": false,
      "stateMutability": "view",
      "type": "function"
    },
    {
      "constant": true,
      "inputs": [],
      "name": "_tokenCount",
      "outputs": [
        {
          "internalType": "uint256",
          "name": "",
          "type": "uint256"
        }
      ],
      "payable": false,
      "stateMutability": "view",
      "type": "function"
    },
    {
      "constant": true,
      "inputs": [],
      "name": "admin",
      "outputs": [
        {
          "internalType": "address",
          "name": "",
          "type": "address"
        }
      ],
      "payable": false,
      "stateMutability": "view",
      "type": "function"
    }
  ],
  "bytecode": "0x608060405234801561001057600080fd5b50336000806101000a81548173ffffffffffffffffffffffffffffffffffffffff021916908373ffffffffffffffffffffffffffffffffffffffff1602179055506040518060400160405280600a81526020017f446f6765636174696f6e000000000000000000000000000000000000000000008152506001908051906020019061009c9291906100aa565b50600060048190555061014f565b828054600181600116156101000203166002900490600052602060002090601f016020900481019282601f106100eb57805160ff1916838001178555610119565b82800160010185558215610119579182015b828111156101185782518255916020019190600101906100fd565b5b509050610126919061012a565b5090565b61014c91905b80821115610148576000816000905550600101610130565b5090565b90565b61022f8061015e6000396000f3fe608060405234801561001057600080fd5b50600436106100415760003560e01c80631eef9d2c14610046578063d28d885214610064578063f851a440146100e7575b600080fd5b61004e610131565b6040518082815260200191505060405180910390f35b61006c610137565b6040518080602001828103825283818151815260200191508051906020019080838360005b838110156100ac578082015181840152602081019050610091565b50505050905090810190601f1680156100d95780820380516001836020036101000a031916815260200191505b509250505060405180910390f35b6100ef6101d5565b604051808273ffffffffffffffffffffffffffffffffffffffff1673ffffffffffffffffffffffffffffffffffffffff16815260200191505060405180910390f35b60045481565b60018054600181600116156101000203166002900480601f0160208091040260200160405190810160405280929190818152602001828054600181600116156101000203166002900480156101cd5780601f106101a2576101008083540402835291602001916101cd565b820191906000526020600020905b8154815290600101906020018083116101b057829003601f168201915b505050505081565b6000809054906101000a900473ffffffffffffffffffffffffffffffffffffffff168156fea265627a7a72315820fc30951530bf22d7a5bc5c3f3a6300d3002c3a52ee68e5046ea877ab9ad4e5ae64736f6c63430005100032",
  "source": "pragma solidity >0.5.2;\n\ncontract Course {\n  address public admin;\n\n  string public _name;\n\n  // courses\n  mapping(address => string[]) credentials;\n\n  mapping(uint256 => address) _owners;\n\n  uint256 public _tokenCount;\n\n  constructor() public {\n    admin = msg.sender;\n    _name = \"Dogecation\";\n    _tokenCount = 0;\n  }\n\n  modifier onlyAdmin() {\n    require(msg.sender == admin);\n    _;\n  }\n}\n",
  "sourcePath": "/Users/K.Z./Desktop/crypto/dogecation-eth/contracts/Course.sol",
  "compiler": {
    "name": "solc",
    "version": "0.5.16+commit.9c3226ce.Emscripten.clang"
  },
  "schemaVersion": "3.2.3",
  "updatedAt": "2021-05-30T13:45:24.643Z",
  "networkType": "ethereum",
  "devdoc": {
    "methods": {}
  },
  "userdoc": {
    "methods": {}
  }
}